{
  "contractName": "Registry",
  "abi": [
    {
      "inputs": [],
      "stateMutability": "nonpayable",
      "type": "constructor"
    },
    {
      "inputs": [
        {
          "internalType": "address",
          "name": "",
          "type": "address"
        }
      ],
      "name": "admins",
      "outputs": [
        {
          "internalType": "address",
          "name": "adminAddress",
          "type": "address"
        },
        {
          "internalType": "string",
          "name": "city",
          "type": "string"
        },
        {
          "internalType": "string",
          "name": "district",
          "type": "string"
        },
        {
          "internalType": "string",
          "name": "state",
          "type": "string"
        }
      ],
      "stateMutability": "view",
      "type": "function",
      "constant": true
    },
    {
      "inputs": [
        {
          "internalType": "string",
          "name": "",
          "type": "string"
        },
        {
          "internalType": "string",
          "name": "",
          "type": "string"
        },
        {
          "internalType": "string",
          "name": "",
          "type": "string"
        },
        {
          "internalType": "uint256",
          "name": "",
          "type": "uint256"
        }
      ],
      "name": "carDetalsMap",
      "outputs": [
        {
          "internalType": "address",
          "name": "owner",
          "type": "address"
        },
        {
          "internalType": "address",
          "name": "admin",
          "type": "address"
        },
        {
          "internalType": "uint256",
          "name": "carRegistrationID",
          "type": "uint256"
        },
        {
          "internalType": "uint256",
          "name": "pinCode",
          "type": "uint256"
        },
        {
          "internalType": "uint256",
          "name": "index",
          "type": "uint256"
        },
        {
          "internalType": "bool",
          "name": "registered",
          "type": "bool"
        },
        {
          "internalType": "uint256",
          "name": "marketValue",
          "type": "uint256"
        },
        {
          "internalType": "string",
          "name": "color",
          "type": "string"
        },
        {
          "internalType": "string",
          "name": "carno",
          "type": "string"
        },
        {
          "internalType": "string",
          "name": "carname",
          "type": "string"
        },
        {
          "internalType": "string",
          "name": "fueltype",
          "type": "string"
        },
        {
          "internalType": "string",
          "name": "firstregistrationdate",
          "type": "string"
        },
        {
          "internalType": "bool",
          "name": "markAvailable",
          "type": "bool"
        },
        {
          "internalType": "uint256",
          "name": "noOfRequests",
          "type": "uint256"
        },
        {
          "internalType": "uint256",
          "name": "seats",
          "type": "uint256"
        }
      ],
      "stateMutability": "view",
      "type": "function",
      "constant": true
    },
    {
      "inputs": [
        {
          "internalType": "address",
          "name": "",
          "type": "address"
        },
        {
          "internalType": "uint256",
          "name": "",
          "type": "uint256"
        }
      ],
      "name": "ownerMapsProperty",
      "outputs": [
        {
          "internalType": "uint256",
          "name": "pinCode",
          "type": "uint256"
        },
        {
          "internalType": "string",
          "name": "state",
          "type": "string"
        },
        {
          "internalType": "string",
          "name": "district",
          "type": "string"
        },
        {
          "internalType": "string",
          "name": "city",
          "type": "string"
        }
      ],
      "stateMutability": "view",
      "type": "function",
      "constant": true
    },
    {
      "inputs": [
        {
          "internalType": "address",
          "name": "",
          "type": "address"
        },
        {
          "internalType": "uint256",
          "name": "",
          "type": "uint256"
        }
      ],
      "name": "requestedCars",
      "outputs": [
        {
          "internalType": "uint256",
          "name": "pinCode",
          "type": "uint256"
        },
        {
          "internalType": "string",
          "name": "state",
          "type": "string"
        },
        {
          "internalType": "string",
          "name": "district",
          "type": "string"
        },
        {
          "internalType": "string",
          "name": "city",
          "type": "string"
        }
      ],
      "stateMutability": "view",
      "type": "function",
      "constant": true
    },
    {
      "inputs": [],
      "name": "superAdmin",
      "outputs": [
        {
          "internalType": "address",
          "name": "",
          "type": "address"
        }
      ],
      "stateMutability": "view",
      "type": "function",
      "constant": true
    },
    {
      "inputs": [],
      "name": "totalAdmins",
      "outputs": [
        {
          "internalType": "uint256",
          "name": "",
          "type": "uint256"
        }
      ],
      "stateMutability": "view",
      "type": "function",
      "constant": true
    },
    {
      "inputs": [
        {
          "internalType": "address",
          "name": "",
          "type": "address"
        }
      ],
      "name": "userProfile",
      "outputs": [
        {
          "internalType": "address",
          "name": "userAddr",
          "type": "address"
        },
        {
          "internalType": "string",
          "name": "fullName",
          "type": "string"
        },
        {
          "internalType": "string",
          "name": "gender",
          "type": "string"
        },
        {
          "internalType": "string",
          "name": "email",
          "type": "string"
        },
        {
          "internalType": "uint256",
          "name": "contact",
          "type": "uint256"
        },
        {
          "internalType": "string",
          "name": "residentialAddr",
          "type": "string"
        },
        {
          "internalType": "uint256",
          "name": "totalIndices",
          "type": "uint256"
        },
        {
          "internalType": "uint256",
          "name": "requestIndices",
          "type": "uint256"
        }
      ],
      "stateMutability": "view",
      "type": "function",
      "constant": true
    },
    {
      "inputs": [
        {
          "internalType": "address",
          "name": "_adminAddr",
          "type": "address"
        },
        {
          "internalType": "string",
          "name": "_state",
          "type": "string"
        },
        {
          "internalType": "string",
          "name": "_district",
          "type": "string"
        },
        {
          "internalType": "string",
          "name": "_city",
          "type": "string"
        }
      ],
      "name": "addAdmin",
      "outputs": [],
      "stateMutability": "nonpayable",
      "type": "function"
    },
    {
      "inputs": [],
      "name": "isAdmin",
      "outputs": [
        {
          "internalType": "bool",
          "name": "",
          "type": "bool"
        }
      ],
      "stateMutability": "view",
      "type": "function",
      "constant": true
    },
    {
      "inputs": [
        {
          "internalType": "string",
          "name": "_state",
          "type": "string"
        },
        {
          "internalType": "string",
          "name": "_district",
          "type": "string"
        },
        {
          "internalType": "string",
          "name": "_city",
          "type": "string"
        },
        {
          "internalType": "uint256",
          "name": "_carRegistrationID",
          "type": "uint256"
        },
        {
          "internalType": "uint256",
          "name": "_pinCode",
          "type": "uint256"
        },
        {
          "internalType": "address",
          "name": "_owner",
          "type": "address"
        },
        {
          "internalType": "uint256",
          "name": "_marketValue",
          "type": "uint256"
        },
        {
          "internalType": "uint256",
          "name": "_seats",
          "type": "uint256"
        },
        {
          "internalType": "string",
          "name": "_color",
          "type": "string"
        },
        {
          "internalType": "string",
          "name": "_carno",
          "type": "string"
        },
        {
          "internalType": "string",
          "name": "_carname",
          "type": "string"
        },
        {
          "internalType": "string",
          "name": "_fueltype",
          "type": "string"
        },
        {
          "internalType": "string",
          "name": "_firstregistrationdate",
          "type": "string"
        }
      ],
      "name": "registerCar",
      "outputs": [],
      "stateMutability": "nonpayable",
      "type": "function"
    },
    {
      "inputs": [
        {
          "internalType": "string",
          "name": "_fullName",
          "type": "string"
        },
        {
          "internalType": "string",
          "name": "_gender",
          "type": "string"
        },
        {
          "internalType": "string",
          "name": "_email",
          "type": "string"
        },
        {
          "internalType": "uint256",
          "name": "_contact",
          "type": "uint256"
        },
        {
          "internalType": "string",
          "name": "_residentialAddr",
          "type": "string"
        }
      ],
      "name": "setUserProfile",
      "outputs": [],
      "stateMutability": "nonpayable",
      "type": "function"
    },
    {
      "inputs": [
        {
          "internalType": "uint256",
          "name": "indexNo",
          "type": "uint256"
        }
      ],
      "name": "markMyPropertyAvailable",
      "outputs": [],
      "stateMutability": "nonpayable",
      "type": "function"
    },
    {
      "inputs": [
        {
          "internalType": "string",
          "name": "_state",
          "type": "string"
        },
        {
          "internalType": "string",
          "name": "_district",
          "type": "string"
        },
        {
          "internalType": "string",
          "name": "_city",
          "type": "string"
        },
        {
          "internalType": "uint256",
          "name": "_pinCode",
          "type": "uint256"
        }
      ],
      "name": "RequestForBuy",
      "outputs": [],
      "stateMutability": "nonpayable",
      "type": "function"
    },
    {
      "inputs": [
        {
          "internalType": "uint256",
          "name": "_index",
          "type": "uint256"
        },
        {
          "internalType": "uint256",
          "name": "_reqNo",
          "type": "uint256"
        }
      ],
      "name": "AcceptRequest",
      "outputs": [],
      "stateMutability": "nonpayable",
      "type": "function"
    },
    {
      "inputs": [
        {
          "internalType": "string",
          "name": "_state",
          "type": "string"
        },
        {
          "internalType": "string",
          "name": "_district",
          "type": "string"
        },
        {
          "internalType": "string",
          "name": "_city",
          "type": "string"
        },
        {
          "internalType": "uint256",
          "name": "_pinCode",
          "type": "uint256"
        }
      ],
      "name": "getCarDetails",
      "outputs": [
        {
          "internalType": "address",
          "name": "",
          "type": "address"
        },
        {
          "internalType": "uint256",
          "name": "",
          "type": "uint256"
        },
        {
          "internalType": "uint256",
          "name": "",
          "type": "uint256"
        },
        {
          "internalType": "uint256",
          "name": "",
          "type": "uint256"
        },
        {
          "internalType": "uint256",
          "name": "",
          "type": "uint256"
        },
        {
          "internalType": "string",
          "name": "",
          "type": "string"
        },
        {
          "internalType": "string",
          "name": "",
          "type": "string"
        },
        {
          "internalType": "string",
          "name": "",
          "type": "string"
        },
        {
          "internalType": "string",
          "name": "",
          "type": "string"
        },
        {
          "internalType": "string",
          "name": "",
          "type": "string"
        }
      ],
      "stateMutability": "view",
      "type": "function",
      "constant": true
    },
    {
      "inputs": [
        {
          "internalType": "string",
          "name": "_state",
          "type": "string"
        },
        {
          "internalType": "string",
          "name": "_district",
          "type": "string"
        },
        {
          "internalType": "string",
          "name": "_city",
          "type": "string"
        },
        {
          "internalType": "uint256",
          "name": "_pinCode",
          "type": "uint256"
        }
      ],
      "name": "getRequestCnt_propId",
      "outputs": [
        {
          "internalType": "uint256",
          "name": "",
          "type": "uint256"
        },
        {
          "internalType": "uint256",
          "name": "",
          "type": "uint256"
        }
      ],
      "stateMutability": "view",
      "type": "function",
      "constant": true
    },
    {
      "inputs": [
        {
          "internalType": "string",
          "name": "_state",
          "type": "string"
        },
        {
          "internalType": "string",
          "name": "_district",
          "type": "string"
        },
        {
          "internalType": "string",
          "name": "_city",
          "type": "string"
        },
        {
          "internalType": "uint256",
          "name": "_pinCode",
          "type": "uint256"
        },
        {
          "internalType": "uint256",
          "name": "_reqIndex",
          "type": "uint256"
        }
      ],
      "name": "getRequesterDetail",
      "outputs": [
        {
          "internalType": "address",
          "name": "",
          "type": "address"
        }
      ],
      "stateMutability": "view",
      "type": "function",
      "constant": true
    },
    {
      "inputs": [
        {
          "internalType": "string",
          "name": "_state",
          "type": "string"
        },
        {
          "internalType": "string",
          "name": "_district",
          "type": "string"
        },
        {
          "internalType": "string",
          "name": "_city",
          "type": "string"
        },
        {
          "internalType": "uint256",
          "name": "_pinCode",
          "type": "uint256"
        }
      ],
      "name": "isAvailable",
      "outputs": [
        {
          "internalType": "bool",
          "name": "",
          "type": "bool"
        }
      ],
      "stateMutability": "view",
      "type": "function",
      "constant": true
    },
    {
      "inputs": [
        {
          "internalType": "uint256",
          "name": "indx",
          "type": "uint256"
        }
      ],
      "name": "getOwnerOwns",
      "outputs": [
        {
          "internalType": "string",
          "name": "",
          "type": "string"
        },
        {
          "internalType": "string",
          "name": "",
          "type": "string"
        },
        {
          "internalType": "string",
          "name": "",
          "type": "string"
        },
        {
          "internalType": "uint256",
          "name": "",
          "type": "uint256"
        }
      ],
      "stateMutability": "view",
      "type": "function",
      "constant": true
    },
    {
      "inputs": [
        {
          "internalType": "uint256",
          "name": "indx",
          "type": "uint256"
        }
      ],
      "name": "getRequestedCars",
      "outputs": [
        {
          "internalType": "string",
          "name": "",
          "type": "string"
        },
        {
          "internalType": "string",
          "name": "",
          "type": "string"
        },
        {
          "internalType": "string",
          "name": "",
          "type": "string"
        },
        {
          "internalType": "uint256",
          "name": "",
          "type": "uint256"
        }
      ],
      "stateMutability": "view",
      "type": "function",
      "constant": true
    },
    {
      "inputs": [],
      "name": "getUserProfile",
      "outputs": [
        {
          "internalType": "string",
          "name": "",
          "type": "string"
        },
        {
          "internalType": "string",
          "name": "",
          "type": "string"
        },
        {
          "internalType": "string",
          "name": "",
          "type": "string"
        },
        {
          "internalType": "uint256",
          "name": "",
          "type": "uint256"
        },
        {
          "internalType": "string",
          "name": "",
          "type": "string"
        }
      ],
      "stateMutability": "view",
      "type": "function",
      "constant": true
    },
    {
      "inputs": [],
      "name": "getIndices",
      "outputs": [
        {
          "internalType": "uint256",
          "name": "",
          "type": "uint256"
        },
        {
          "internalType": "uint256",
          "name": "",
          "type": "uint256"
        }
      ],
      "stateMutability": "view",
      "type": "function",
      "constant": true
    },
    {
      "inputs": [
        {
          "internalType": "string",
          "name": "_state",
          "type": "string"
        },
        {
          "internalType": "string",
          "name": "_district",
          "type": "string"
        },
        {
          "internalType": "string",
          "name": "_city",
          "type": "string"
        },
        {
          "internalType": "uint256",
          "name": "_pinCode",
          "type": "uint256"
        }
      ],
      "name": "didIRequested",
      "outputs": [
        {
          "internalType": "bool",
          "name": "",
          "type": "bool"
        }
      ],
      "stateMutability": "view",
      "type": "function",
      "constant": true
    }
  ],
  "bytecode": "0x608080604052346100285760008054600160a060020a03191633179055613347908161002e8239f35b600080fdfe6080604052600436101561001257600080fd5b7c010000000000000000000000000000000000000000000000000000000060003504806303825d6c14612ad55780631c8e8962146129f95780631dd05ded146129ab57806329575f6a146129845780633bbd43b3146128de5780633eae378f14612843578063429b62e5146127ab57806344e0573414612635578063486dc97e1461190d5780635863056d146118d75780636d1b9a8e146118305780636f61c744146117635780638a80e4e414611351578063992369da14611311578063a5adb33a14610fd5578063b6db75a014610fba578063bfde241c14610b43578063d06efd6714610ab7578063d1dbeff214610a3f578063d41cc5c8146102f6578063e643b7b81461017e578063eaec23fa146101585763eb68048b1461013557600080fd5b34610153576000366003190112610153576020600154604051908152f35b600080fd5b3461015357602061017461016b36613066565b92919091613288565b6040519015158152f35b346101535761018c36613066565b9260409291925181818093516020819301916101a792612fbc565b8101600581520360200190206101bc916130ef565b6101c5916130ef565b906000526020526040600020600160a060020a039081815416916001820154169060028101546003820154916004810154600582015460ff1660068301546007840161021090612f17565b61021c60088601612f17565b9061022960098701612f17565b92610236600a8801612f17565b94610243600b8901612f17565b96600c89015460ff169a600e8a015499600f01549a6040519e8f9e8f91825260208201526040015260608d015260808c0152151560a08b015260c08a01526101e08060e08b0152890161029591612fdf565b8881036101008a01526102a791612fdf565b8781036101208901526102b991612fdf565b8681036101408801526102cb91612fdf565b8581036101608701526102dd91612fdf565b9215156101808501526101a08401526101c08301520390f35b34610153576040366003190112610153573360009081526003602090815260408083206004358452909152902080549061033290600101612f17565b90336000526003602052604060002060043560005260205261035a6002604060002001612f17565b33600052600360205260406000206004356000526020526103816003604060002001612f17565b916103b56103af604051602081885161039d8183858d01612fbc565b600581830152810103019020846130ef565b846130ef565b81600052602052600d604060002001602435600052602052600160a060020a03604060002054169261041061040a604051602081816103fa8b83815193849201612fbc565b81016005815203019020856130ef565b826130ef565b82600052602052600d60406000200160243560005260205261044561040a604051602081816103fa8b83815193849201612fbc565b82600052602052600e6040600020015460005b81811061091f57505061047e61040a604051602081816103fa8b83815193849201612fbc565b82600052602052604060002084600160a060020a03198254161790556104b761040a604051602081816103fa8b83815193849201612fbc565b82600052602052600c60406000200160ff1981541690556104eb61040a604051602081816103fa8b83815193849201612fbc565b826000526020526000600e60408220015533600052600360205260406000206004356000526020526105206040600020613260565b836000526006602052600660406000200154926003602052604060002084600052602052604060002095838755805167ffffffffffffffff811161078a5761056b6001890154612ec3565b601f81116108e9575b50806020601f82116001146108775760009161086c575b50816002029160080260020a6000190419161760018801555b815167ffffffffffffffff811161078a576105c26002890154612ec3565b601f8111610836575b50806020601f82116001146107c4576000916107b9575b50816002029160080260020a6000190419161760028801555b82519667ffffffffffffffff881161078a5761061a6003820154612ec3565b601f8111610749575b50602097601f81116001146106c95761068a939261067a926003836020946106909a9b9c9d6000916106be575b50816002029160080260020a600019041916179101555b8160405193828580945193849201612fbc565b81016005815203019020906130ef565b906130ef565b90600052602052600460406000200155600052600660205260066040600020016106ba8154613115565b9055005b90508901518e610650565b60038201600052602060002060005b601f198316811061073157509261067a926003600160028561068a99986106909c9d9e9f602098601f19811610610716575b50500201910155610667565b8c01516008601f841602840a60001904191690558f8061070a565b868b0151825560209a8b019a600190920191016106d8565b61077a906003830160005260206000206020601f8c010481019160208c10610780575b601f60209101040190613153565b88610623565b909150819061076c565b7f4e487b7100000000000000000000000000000000000000000000000000000000600052604160045260246000fd5b9050830151896105e2565b90506002890160005260206000209060005b601f198416811061081e57509160029160019382601f19811610610803575b5050020160028801556105fb565b8601516008601f841602840a60001904191690558a806107f5565b909160206001819285890151815501930191016107d6565b6108669060028a0160005260206000206020601f8501048101916020851061078057601f60209101040190613153565b886105cb565b90508201518961058b565b90506001890160005260206000209060005b601f19841681106108d157509160029160019382601f198116106108b6575b5050020160018801556105a4565b8501516008601f841602840a60001904191690558a806108a8565b90916020600181928588015181550193019101610889565b6109199060018a0160005260206000206020601f8501048101916020851061078057601f60209101040190613153565b88610574565b610a3a9061095861095261094260208b8160405193828580945193849201612fbc565b81016005815203019020886130ef565b856130ef565b85600052602052600d60406000200181600052602052600160a060020a03604060002054166109b26109ac61099c60208c8160405193828580945193849201612fbc565b81016005815203019020896130ef565b866130ef565b86600052602052600d604060002001826000526020526001604060002001549060005260046020526040600020906000526020526109f36040600020613260565b610a1261095261094260208b8160405193828580945193849201612fbc565b85600052602052600d6040600020018160005260205260006001604082208281550155613115565b610458565b3461015357604036600319011261015357600160a060020a03610a60612e34565b166000526003602052604060002060243560005260205260406000208054610ab3610a8d60018401612f17565b92610aa66003610a9f60028401612f17565b9201612f17565b9060405194859485613004565b0390f35b34610153576040610b2a610aca36613066565b9192939061068a86519461067a878051610b0b610b058a6020809c8180970195610af5818389612fbc565b81016005815203019020866130ef565b876130ef565b886000528252600e8b6000200154998b51938492839251928391612fbc565b9060005281526002836000200154908351928352820152f35b346101535760a03660031901126101535767ffffffffffffffff60043581811161015357610b75903690600401612e6c565b9060243581811161015357610b8e903690600401612e6c565b60443582811161015357610ba6903690600401612e6c565b9260843583811161015357610bbf903690600401612e6c565b33600052602094600686526040600020600191828201855188811161078a5780610be98354612ec3565b97601f98898111610f8d575b508b90898311600114610f2157600092610f16575b5050816002029160080260020a6000190419161790555b6002958683019080519089821161078a578190610c3e8454612ec3565b898111610ee9575b508b90898311600114610e7357600092610e68575b505060088202890a6000190419169088021790555b8051600383019188821161078a57610c888354612ec3565b878111610e3c575b508990878311600114610dce5760059493929160009183610dc3575b505060088202890a6000190419169088021790555b60643560048201550195825195861161078a57610cde8754612ec3565b848111610d8d575b508093808711600114610d255750505090839291600093610d1a575b505060088302810a6000190419919091169102179055005b015191508480610d02565b919593909284601f1981168960005285600020956000905b8a838310610d735750505010610d58575b5050505002019055005b0151908316600802840a600019041916905584808080610d4e565b858701518955909701969485019488935090810190610d3d565b610db4908860005282600020838781818c0104830193828c10610dba575b01040190613153565b87610ce6565b93508293610dab565b015190508b80610cac565b93929188908b8793601f198316978660005282600020926000905b8a8210610e225750508360059910610e08575b50505002019055610cc1565b01516008838c1602840a60001904191690558c8080610dfc565b8383015185558b978f97509094019392830192018f610de9565b610e6290846000528b6000208c8a8181880104830193828810610dba5701040190613153565b8a610c90565b015190508b80610c5b565b8793508a92918d91601f1984168760005283600020936000905b828210610ec35750508411610ea9575b50505002019055610c70565b01516008838c1602840a60001904191690558c8080610e9d565b929484975097839294988392979987015181550196019401918a9694928e969492610e8d565b610f1090856000528d80600020908c8181880104830193828810610dba5701040190613153565b8c610c46565b015190508b80610c0a565b9250908b8792601f1983168660005282600020926000905b828210610f7457505094836002959610610f5a575b50505002019055610c21565b01516008838c1602840a60001904191690558c8080610f4e565b8388015185558b96909401939283019290810190610f39565b610fb490856000528d80600020908c8181880104830193828810610dba5701040190613153565b8c610bf5565b3461015357600036600319011261015357602061017461316a565b3461015357610fe336613066565b90919260405190805160209586830191610ffe818685612fbc565b84019387816005968781520301902061101790826130ef565b61102190876130ef565b856000528752604060002054600160a060020a03169560405188818651611049818389612fbc565b81018881520301902061105c90836130ef565b61106690826130ef565b866000528852604060002060020154956040518981875161108881838a612fbc565b81018981520301902061109b90846130ef565b6110a590836130ef565b8160005289526040600020600401546040518a8188516110c681838b612fbc565b81018a8152030190206110d990856130ef565b6110e390846130ef565b826000528a52604060002060060154916040518b81895161110581838c612fbc565b81018b81520301902061111890866130ef565b61112290856130ef565b816000528b526040600020600f0154936040518c818a5161114481838d612fbc565b81018c81520301902061115790876130ef565b61116190826130ef565b826000528c52604060002060070161117890612f17565b956040518d81808b8d51809261118d92612fbc565b81018d8152030190206111a090826130ef565b6111aa90836130ef565b836000528d5260406000206008016111c190612f17565b978d8b818c604051928391516111d8818489612fbc565b8201908152030190206111eb90846130ef565b6111f590856130ef565b9085600052528d604060002060090161120d90612f17565b9a8c826040518092845161122281848a612fbc565b82019081520301902061123590856130ef565b61123f90866130ef565b8660005282526040600020600a0161125690612f17565b9c6040518094819351809261126a92612fbc565b82019081520301902061127c916130ef565b611285916130ef565b906000528a526040600020600b0161129c90612f17565b976040519a8b9a8b528a01526040890152606088015260808701526101408060a088015286016112cb91612fdf565b85810360c08701526112dc91612fdf565b84810360e08601526112ed91612fdf565b8381036101008501526112ff91612fdf565b828103610120840152610ab391612fdf565b346101535761068a61133261068a61132836613066565b95929390936130c9565b90600052602052602060ff600c60406000200154166040519015158152f35b346101535761135f36613066565b6040519261138e6103af858781815161137e8160209b8c809601612fbc565b81016005815203019020836130ef565b8260005284526040600020926001938460ff600c8301541615150361171d57600e810190600d8254910181600052808852604060002033600160a060020a0319825416179055336000526006885260076040600020015491600052875285604060002001556113fd8154613115565b90553360005260048552604060002060068652600760406000200154600052855260406000209283558383019286519367ffffffffffffffff9485811161078a57806114498354612ec3565b99601f9a8b81116116f0575b5089908b83116001146116875760009261167c575b5050816002029160080260020a6000190419161790555b6002928382019080519086821161078a5761149c8354612ec3565b8a8111611650575b5088908a83116001146115e257600394939291600091836115d7575b505060088202870a6000190419169086021790555b0193815193841161078a576114ea8554612ec3565b8781116115ab575b50859680851160011461154657505090600695839260009361153b575b505082810292600802900a6000190419161790555b336000525260076040600020016106ba8154613115565b01519150868061150f565b601f949291941983169786600052876000209260005b8a811061159657508460069a1061157b575b5050505002019055611524565b0151908316600802840a60001904191690558680808061156e565b8183015185559387019391890191890161155c565b6115d1908660005287600020888a81818a0104830193828a10610dba5701040190613153565b876114f2565b015190508b806114c0565b88919493928791601f19821696856000528c600020918d6000905b8a8210611636575050836003991061161c575b505050020190556114d5565b01516008838f1602840a60001904191690558c8080611610565b8383015185558e978d97509094019392830192018e6115fd565b61167690846000528a6000208b8d8181880104830193828810610dba5701040190613153565b8a6114a4565b015190508a8061146a565b9250908891601f19821690856000528b6000209160005b8d8282106116da575050948360029596106116c0575b50505002019055611481565b01516008838e1602840a60001904191690558b80806116b4565b8388015185558d9690940193928301920161169e565b61171790856000528c8c80600020918181880104830193828810610dba5701040190613153565b8b611455565b6064866040519060e560020a62461bcd02825280600483015260248201527f5468697320636172206973204e4f54206d61726b656420666f722073616c65216044820152fd5b34610153576000366003190112610153573360005260066020526118016117906001604060002001612f17565b336000526006602052610ab36117ac6002604060002001612f17565b3360005260066020526117c56003604060002001612f17565b9033600052600660205261181d60406000209261180f6117ec600560048701549601612f17565b9360405198899860a08a5260a08a0190612fdf565b9088820360208a0152612fdf565b908682036040880152612fdf565b9160608501528382036080850152612fdf565b34610153576020806003193601126101535760043533600052600382526040600020816000528252610ab3604060002054336000526003845260406000208360005284526118846001604060002001612f17565b92336000526003855260406000208160005285526118a86002604060002001612f17565b943360005260038152604060002091600052526118cb6003604060002001612f17565b60405194859485613043565b34610153576000366003190112610153573360005260066020526040806000206007600682015491015482519182526020820152f35b34610153576101a03660031901126101535760043567ffffffffffffffff81116101535761193f903690600401612e6c565b60243567ffffffffffffffff81116101535761195f903690600401612e6c565b9060443567ffffffffffffffff811161015357611980903690600401612e6c565b60a43591600160a060020a03938484168403610153576101043567ffffffffffffffff8111610153576119b7903690600401612e6c565b916101243567ffffffffffffffff8111610153576119d9903690600401612e6c565b6101443567ffffffffffffffff8111610153576119fa903690600401612e6c565b6101643567ffffffffffffffff811161015357611a1b903690600401612e6c565b6101843567ffffffffffffffff811161015357611a3c903690600401612e6c565b91336000526002602052338a60406000205416036125ee57336000526002602052611a7b611a8960036040600020016040519283916020830190613195565b03601f198101835282612e4a565b602081519101206040516020810190611abc60208281611aaf8c87815193849201612fbc565b8101038084520182612e4a565b519020148061259c575b8061254b575b156124de57611af4611aee604051602081816109428b83815193849201612fbc565b896130ef565b60843560005260205260ff6005604060002001541661247157611b2a611aee604051602081816109428b83815193849201612fbc565b6084356000526020526040600020938a8a166000526003602052604060002060066020526006604060002001546000526020526040600020978b8b16600160a060020a03198754161786556001860133600160a060020a0319825416179055606435600287015560843560038701558b8b16600052600660205260066040600020015460048701556005860160ff199060018282541617905560c4356006880155600c870190815416905560e435600f87015580519067ffffffffffffffff821161078a578190611bfe6007890154612ec3565b601f811161243b575b50602090601f83116001146123c7576000926123bc575b5050816002029160080260020a6000190419161760078601555b80519067ffffffffffffffff821161078a578190611c596008880154612ec3565b601f8111612386575b50602090601f831160011461231257600092612307575b5050816002029160080260020a6000190419161760088501555b80519067ffffffffffffffff821161078a578190611cb46009870154612ec3565b601f81116122d1575b50602090601f831160011461225d57600092612252575b5050816002029160080260020a6000190419161760098401555b80519067ffffffffffffffff821161078a578190611d0f600a860154612ec3565b601f811161221c575b50602090601f83116001146121a85760009261219d575b5050816002029160080260020a60001904191617600a8301555b80519067ffffffffffffffff821161078a57611d68600b840154612ec3565b601f8111612167575b50602090601f83116001146120f457600b9291600091836120e9575b5050816002029160080260020a600019041916179101555b608435835580519067ffffffffffffffff821161078a578190611dcb6001860154612ec3565b601f81116120b3575b50602090601f831160011461203f57600092612034575b5050816002029160080260020a6000190419161760018301555b80519067ffffffffffffffff821161078a57611e246002840154612ec3565b601f8111611ffe575b50602090601f8311600114611f8857600393929160009183611f7d575b5050816002029160080260020a6000190419161760028201555b019080519067ffffffffffffffff821161078a578190611e848454612ec3565b601f8111611f4a575b50602090601f8311600114611ee157600092611ed6575b5050816002029160080260020a6000190419161790555b16600052600660205260066040600020016106ba8154613115565b015190508580611ea4565b6000858152602081209350601f198516905b818110611f3257509160029391856001969410611f17575b50505002019055611ebb565b01516008601f841602840a6000190419169055868080611f0b565b92936020600181928786015181550195019301611ef3565b611f77908560005260206000206020601f8601048101916020861061078057601f60209101040190613153565b86611e8d565b015190508780611e4a565b906002840160005260206000209160005b601f1985168110611fe65750926001926002926003969583601f19811610611fcb575b50505002016002820155611e64565b01516008601f841602840a6000190419169055888080611fbc565b91926020600181928685015181550194019201611f99565b61202e906002850160005260206000206020601f8601048101916020861061078057601f60209101040190613153565b86611e2d565b015190508780611deb565b91506001850160005260206000209160005b601f198516811061209b5750918391600293600195601f19811610612080575b50505002016001830155611e05565b01516008601f841602840a6000190419169055888080612071565b91926020600181928685015181550194019201612051565b6120e3906001870160005260206000206020601f8601048101916020861061078057601f60209101040190613153565b88611dd4565b015190508a80611d8d565b90600b840160005260206000209160005b601f198516811061214f575092600192600292600b9583601f19811610612134575b5050500201910155611da5565b01516008601f841602840a60001904191690558b8080612127565b91926020600181928685015181550194019201612105565b61219790600b850160005260206000206020601f8601048101916020861061078057601f60209101040190613153565b89611d71565b015190508a80611d2f565b9150600a850160005260206000209160005b601f19851681106122045750918391600293600195601f198116106121e9575b5050500201600a830155611d49565b01516008601f841602840a60001904191690558b80806121da565b919260206001819286850151815501940192016121ba565b61224c90600a870160005260206000206020601f8601048101916020861061078057601f60209101040190613153565b8b611d18565b015190508b80611cd4565b91506009860160005260206000209160005b601f19851681106122b95750918391600293600195601f1981161061229e575b50505002016009840155611cee565b01516008601f841602840a60001904191690558c808061228f565b9192602060018192868501518155019401920161226f565b612301906009880160005260206000206020601f8601048101916020861061078057601f60209101040190613153565b8c611cbd565b015190508c80611c79565b91506008870160005260206000209160005b601f198516811061236e5750918391600293600195601f19811610612353575b50505002016008850155611c93565b01516008601f841602840a60001904191690558d8080612344565b91926020600181928685015181550194019201612324565b6123b6906008890160005260206000206020601f8601048101916020861061078057601f60209101040190613153565b8d611c62565b015190508d80611c1e565b91506007880160005260206000209160005b601f19851681106124235750918391600293600195601f19811610612408575b50505002016007860155611c38565b01516008601f841602840a60001904191690558e80806123f9565b919260206001819286850151815501940192016123d9565b61246b9060078a0160005260206000206020601f8601048101916020861061078057601f60209101040190613153565b8e611c07565b608460405160e560020a62461bcd02815260206004820152602160248201527f537572766579204e756d62657220616c7265616479207265676973746572656460448201527f21000000000000000000000000000000000000000000000000000000000000006064820152fd5b608460405160e560020a62461bcd02815260206004820152602960248201527f41646d696e2063616e206f6e6c7920726567697374657220636172206f66207360448201527f616d6520636974792e00000000000000000000000000000000000000000000006064820152fd5b50336000526002602052600160406000200160405161257281611a7b602082018095613195565b5190208860405161259360208281611aaf8183019687815193849201612fbc565b51902014611acc565b5033600052600260205260026040600020016040516125c381611a7b602082018095613195565b51902060405160208101906125e560208281611aaf8d87815193849201612fbc565b51902014611ac6565b606460405160e560020a62461bcd02815260206004820152601b60248201527f4f6e6c792061646d696e2063616e2052656769737465722043617200000000006044820152fd5b346101535760208060031936011261015357600435903360005260038152604060002082600052815261266e6001604060002001612f17565b91336000526003825260406000208160005282526126926002604060002001612f17565b336000526003835260406000208260005283526126b56003604060002001612f17565b913360005260038452604060002090600052835260406000205493604051906126ee6109528251938781818601966103fa81838a612fbc565b86600052855260ff600c604060002001541661273e579161067a8561068a936127239695604051938492839251928391612fbc565b6000928352905260409020600c01805460ff19166001179055005b6084856040519060e560020a62461bcd0282526004820152602160248201527f50726f706572747920616c7265616479206d61726b656420617661696c61626c60448201527f65000000000000000000000000000000000000000000000000000000000000006064820152fd5b3461015357602036600319011261015357600160a060020a03806127cd612e34565b166000526002602052604060002090815416610ab36127ee60018401612f17565b9261283561280a600361280360028501612f17565b9301612f17565b916128276040519687968752608060208801526080870190612fdf565b908582036040870152612fdf565b908382036060850152612fdf565b34610153576020806003193601126101535760043533600052600482526040600020816000528252610ab3604060002054336000526004845260406000208360005284526128976001604060002001612f17565b92336000526004855260406000208160005285526128bb6002604060002001612f17565b943360005260048152604060002091600052526118cb6003604060002001612f17565b346101535760a03660031901126101535767ffffffffffffffff60043581811161015357612910903690600401612e6c565b60243582811161015357612928903690600401612e6c565b91604435908111610153576129519261068a61294b61068a933690600401612e6c565b936130c9565b606435600052602052600d6040600020016084356000526020526020600160a060020a0360406000205416604051908152f35b34610153576000366003190112610153576020600160a060020a0360005416604051908152f35b3461015357604036600319011261015357600160a060020a036129cc612e34565b166000526004602052604060002060243560005260205260406000208054610ab3610a8d60018401612f17565b3461015357602036600319011261015357600160a060020a0380612a1b612e34565b166000526006602052604060002090815416612a3960018301612f17565b91612a4660028201612f17565b612ac6612a5560038401612f17565b600484015490612ab3612a6a60058701612f17565b91612aa56007600689015498015496612a976040519b8c9b8c5260208c61010091829101528c0190612fdf565b908a820360408c0152612fdf565b9088820360608a0152612fdf565b91608087015285820360a0870152612fdf565b9160c084015260e08301520390f35b3461015357608036600319011261015357612aee612e34565b67ffffffffffffffff60243581811161015357612b0f903690600401612e6c565b60443582811161015357612b27903690600401612e6c565b9260643583811161015357612b48600160a060020a03913690600401612e6c565b91169182600052600292602095848752604060002090600192612b6b8454613115565b8455600160a060020a0319835416178255828201855188811161078a5780612b938354612ec3565b97601f98898111612e07575b508b90898311600114612d9157600092612d86575b505060088202890a6000190419169088021790555b80518287019188821161078a57612be08354612ec3565b878111612d5a575b508990878311600114612cec5760039493929160009183612ce1575b505060088202890a6000190419169088021790555b0195825195861161078a57612c2e8754612ec3565b848111612cb5575b508093808711600114612c695750505090839291600093610d1a57505060088302810a6000190419919091169102179055005b919593909284601f1981168960005285600020956000905b8a838310612c9b5750505010610d58575050505002019055005b858701518955909701969485019488935090810190612c81565b612cdb908860005282600020838781818c0104830193828c10610dba5701040190613153565b87612c36565b015190508b80612c04565b93929188908b8793601f198316978660005282600020926000905b8a8210612d405750508360039910612d26575b50505002019055612c19565b01516008838c1602840a60001904191690558c8080612d1a565b8383015185558b978f97509094019392830192018f612d07565b612d8090846000528b6000208c8a8181880104830193828810610dba5701040190613153565b8a612be8565b015190508b80612bb4565b8793508a92918d91601f1984168760005283600020936000905b828210612de15750508411612dc7575b50505002019055612bc9565b01516008838c1602840a60001904191690558c8080612dbb565b929484975097839294988392979987015181550196019401918a9694928e969492612dab565b612e2e90856000528d80600020908c8181880104830193828810610dba5701040190613153565b8c612b9f565b60043590600160a060020a038216820361015357565b90601f8019910116810190811067ffffffffffffffff82111761078a57604052565b81601f820112156101535780359067ffffffffffffffff821161078a5760405192612ea1601f8401601f191660200185612e4a565b8284526020838301011161015357816000926020809301838601378301015290565b9060016002830492168015612f0d575b6020831014612ede57565b7f4e487b7100000000000000000000000000000000000000000000000000000000600052602260045260246000fd5b91607f1691612ed3565b9060405191826000825492612f2b84612ec3565b908184526001948581169081600014612f9a5750600114612f57575b5050612f5592500383612e4a565b565b9093915060005260209081600020936000915b818310612f82575050612f5593508201013880612f47565b85548884018501529485019487945091830191612f6a565b915050612f5594506020925060ff191682840152151581028201013880612f47565b60005b838110612fcf5750506000910152565b8181015183820152602001612fbf565b90602091612ff881518092818552858086019101612fbc565b601f01601f1916010190565b926130246130409593613032938652608060208701526080860190612fdf565b908482036040860152612fdf565b916060818403910152612fdf565b90565b94939261180f6060936118016130619460808a5260808a0190612fdf565b930152565b60806003198201126101535767ffffffffffffffff91600435838111610153578261309391600401612e6c565b9260243581811161015357836130ab91600401612e6c565b92604435918211610153576130c291600401612e6c565b9060643590565b60206130e2918160405193828580945193849201612fbc565b8101600581520301902090565b602090613109928260405194838680955193849201612fbc565b82019081520301902090565b60001981146131245760010190565b7f4e487b7100000000000000000000000000000000000000000000000000000000600052601160045260246000fd5b81811061315e575050565b60008155600101613153565b33600052600260205233600160a060020a03604060002054161460001461319057600190565b600090565b6000929181546131a481612ec3565b926001918083169081156131fd57506001146131c1575b50505050565b90919293945060005260209081600020906000915b8583106131ec57505050500190388080806131bb565b8054858401529183019181016131d6565b60ff19168452505050811515909102019150388080806131bb565b6132228154612ec3565b908161322c575050565b81601f6000931160011461323e575055565b90808391825261325c6020601f818520950104840160018501613153565b5555565b6003612f55916000815561327660018201613218565b61328260028201613218565b01613218565b92916132ab9061068a6040938451878180995161067a8160209c8d809601612fbc565b6000928352835280822090600e82015480156133095791600d01835b8381106132d75750505050905090565b80855281865233600160a060020a038487205416146132fe576132f990613115565b6132c7565b505050505050600190565b50505090509056fea26469706673582212209763a5dacdb953b5d49ca5d2b5c91c3fda641e1b299ce9f7a66f8cd705dacadd64736f6c63430008130033",
  "immutableReferences": {},
  "source": "// SPDX-License-Identifier: MIT\npragma solidity >= 0.5.0 < 0.9.0;\n\ncontract Registry{\n\n    address public superAdmin;\n    uint public totalAdmins;\n    \n    struct Admin{\n        address adminAddress;\n        string city;\n        string district;\n        string state;\n    }\n\n    struct CarDetails{\n        address owner;\n        address admin;\n        uint256 carRegistrationID;\n        uint pinCode;\n        uint index;\n        bool registered;\n        uint marketValue;\n        string color;\n        string carno;\n        string carname;\n        string fueltype;\n        string firstregistrationdate;\n        bool markAvailable;\n        mapping(uint => RequestDetails) requests; // reqNo => RequestDetails\n        uint noOfRequests;  // other users requested to this land\n        uint seats;\n    }\n\n    struct UserProfile{\n        address userAddr;\n        string fullName;\n        string gender;\n        string email;\n        uint256 contact;\n        string residentialAddr;\n        uint totalIndices;\n        uint requestIndices;  // this user requested to other lands\n    }\n\n    struct OwnerOwns{\n        uint pinCode;\n        string state;\n        string district;\n        string city;\n    }\n    \n    struct RequestedCars{\n        uint pinCode;\n        string state;\n        string district;\n        string city;\n    }\n\n    struct RequestDetails{\n        address whoRequested;\n        uint reqIndex;\n    }\n\n    mapping(address => Admin) public admins;\n    mapping(address => mapping(uint => OwnerOwns)) public ownerMapsProperty;  // ownerAddr => index no. => OwnerOwns \n    mapping(address => mapping(uint => RequestedCars)) public requestedCars;  // ownerAddr => reqIndex => RequestedLands\n    mapping(string => mapping(string => mapping(string => mapping(uint => CarDetails)))) public carDetalsMap; // state => district => city => surveyNo => LandDetails\n    mapping(address => UserProfile) public userProfile;\n    \n\n    constructor(){\n        superAdmin = msg.sender;\n    }\n\n    modifier onlyAdmin(){\n        require(admins[msg.sender].adminAddress == msg.sender, \"Only admin can Register Car\");\n        _;\n    }\n\n\n    // SuperAdmin: Registers new admin\n    function addAdmin(address _adminAddr, string memory _state, string memory _district, string memory _city) external{\n        Admin storage newAdmin = admins[_adminAddr];\n        totalAdmins++;\n\n        newAdmin.adminAddress = _adminAddr;\n        newAdmin.city = _city;\n        newAdmin.district = _district;\n        newAdmin.state = _state;\n    }\n\n\n    // check if it is admin\n    function isAdmin() external view returns(bool){\n        if(admins[msg.sender].adminAddress == msg.sender){\n            return true;\n        }\n        else return false;\n    }\n\n\n    // Admin: registers land\n    function registerCar(string memory _state, string memory _district, string memory _city, uint256 _carRegistrationID, uint _pinCode, address _owner, uint _marketValue, uint _seats,string memory _color,string memory _carno,string memory _carname,string memory _fueltype,string memory _firstregistrationdate) external onlyAdmin{\n        \n        require(keccak256(abi.encodePacked(admins[msg.sender].state)) == keccak256(abi.encodePacked(_state))  \n        && keccak256(abi.encodePacked(admins[msg.sender].district)) == keccak256(abi.encodePacked(_district))\n        && keccak256(abi.encodePacked(admins[msg.sender].city)) == keccak256(abi.encodePacked(_city)), \"Admin can only register car of same city.\");\n\n        require(carDetalsMap[_state][_district][_city][_pinCode].registered == false, \"Survey Number already registered!\");\n\n        CarDetails storage newCarRegistry = carDetalsMap[_state][_district][_city][_pinCode];\n        OwnerOwns storage newOwnerOwns = ownerMapsProperty[_owner][userProfile[_owner].totalIndices];\n        \n        newCarRegistry.owner = _owner;\n        newCarRegistry.admin = msg.sender;\n        newCarRegistry.carRegistrationID = _carRegistrationID;\n        newCarRegistry.pinCode = _pinCode;\n        newCarRegistry.index = userProfile[_owner].totalIndices;\n        newCarRegistry.registered = true;\n        newCarRegistry.marketValue = _marketValue;\n        newCarRegistry.markAvailable = false;\n        newCarRegistry.seats = _seats;\n        newCarRegistry.color = _color;\n        newCarRegistry.carno=_carno;\n        newCarRegistry.carname=_carname;\n        newCarRegistry.fueltype=_fueltype;\n        newCarRegistry.firstregistrationdate = _firstregistrationdate;\n\n\n\n\n        newOwnerOwns.pinCode = _pinCode;\n        newOwnerOwns.state = _state;\n        newOwnerOwns.district = _district;\n        newOwnerOwns.city = _city;\n\n        userProfile[_owner].totalIndices++;\n    }\n\n\n    // User_1: set user profile\n    function setUserProfile(string memory _fullName, string memory _gender, string memory _email, uint256 _contact, string memory _residentialAddr) external{\n        \n        UserProfile storage newUserProfile = userProfile[msg.sender];\n\n        newUserProfile.fullName = _fullName;\n        newUserProfile.gender = _gender;\n        newUserProfile.email = _email;\n        newUserProfile.contact = _contact;\n        newUserProfile.residentialAddr = _residentialAddr;\n    }\n\n\n    // User_1: mark property available\n    function markMyPropertyAvailable(uint indexNo) external {\n        \n        string memory state = ownerMapsProperty[msg.sender][indexNo].state;\n        string memory district = ownerMapsProperty[msg.sender][indexNo].district;\n        string memory city = ownerMapsProperty[msg.sender][indexNo].city;\n        uint pinCode = ownerMapsProperty[msg.sender][indexNo].pinCode;\n\n        require(carDetalsMap[state][district][city][pinCode].markAvailable == false, \"Property already marked available\");\n\n        carDetalsMap[state][district][city][pinCode].markAvailable = true;\n    \n    }\n\n\n    // User_2: Request for buy  *ownerAddress & index = arguements* \n    function RequestForBuy(string memory _state, string memory _district, string memory _city, uint _pinCode) external{\n\n        CarDetails storage thisCarDetail = carDetalsMap[_state][_district][_city][_pinCode];\n        require(thisCarDetail.markAvailable == true, \"This car is NOT marked for sale!\");\n\n        uint req_serialNum = thisCarDetail.noOfRequests; \n        thisCarDetail.requests[req_serialNum].whoRequested = msg.sender;\n        thisCarDetail.requests[req_serialNum].reqIndex = userProfile[msg.sender].requestIndices;\n        thisCarDetail.noOfRequests++;\n\n        // adding requested land to user_2 profile\n        RequestedCars storage newReqestedCars = requestedCars[msg.sender][userProfile[msg.sender].requestIndices];\n        newReqestedCars.pinCode = _pinCode;\n        newReqestedCars.state = _state;\n        newReqestedCars.district = _district;\n        newReqestedCars.city = _city;\n\n        userProfile[msg.sender].requestIndices++;\n\n    }\n\n\n    // User_1: Accept the buy request; sell.\n    function AcceptRequest(uint _index, uint _reqNo) external{\n\n        uint _pinCode = ownerMapsProperty[msg.sender][_index].pinCode;\n        string memory _state = ownerMapsProperty[msg.sender][_index].state; \n        string memory _district = ownerMapsProperty[msg.sender][_index].district;\n        string memory _city = ownerMapsProperty[msg.sender][_index].city;\n        \n        // updating LandDetails\n        address newOwner = carDetalsMap[_state][_district][_city][_pinCode].requests[_reqNo].whoRequested;\n        uint newOwner_reqIndex = carDetalsMap[_state][_district][_city][_pinCode].requests[_reqNo].reqIndex;\n        uint noOfReq = carDetalsMap[_state][_district][_city][_pinCode].noOfRequests;\n\n        // deleting requested land from all requesters AND removing all incoming requests\n        for(uint i=0; i<noOfReq; i++){\n            address requesterAddr = carDetalsMap[_state][_district][_city][_pinCode].requests[i].whoRequested;\n            uint requester_reqIndx = carDetalsMap[_state][_district][_city][_pinCode].requests[i].reqIndex;\n            \n            delete requestedCars[requesterAddr][requester_reqIndx];\n            delete carDetalsMap[_state][_district][_city][_pinCode].requests[i];\n        }\n\n        carDetalsMap[_state][_district][_city][_pinCode].owner = newOwner;\n        carDetalsMap[_state][_district][_city][_pinCode].markAvailable = false;\n        carDetalsMap[_state][_district][_city][_pinCode].noOfRequests = 0;\n\n        // deleting property from user_1's ownerMapsProperty \n        delete ownerMapsProperty[msg.sender][_index];\n\n        // adding ownerMapsProperty for newOwner\n        uint newOwnerTotProp = userProfile[newOwner].totalIndices;\n        OwnerOwns storage newOwnerOwns = ownerMapsProperty[newOwner][newOwnerTotProp];\n       \n        newOwnerOwns.pinCode = _pinCode;\n        newOwnerOwns.state = _state;\n        newOwnerOwns.district = _district;\n        newOwnerOwns.city = _city;\n\n        carDetalsMap[_state][_district][_city][_pinCode].index = newOwnerTotProp;\n\n        userProfile[newOwner].totalIndices++;\n\n    }\n\n    \n    //******* GETTERS **********\n\n    // return land details \n    function getCarDetails(string memory _state, string memory _district, string memory _city, uint _pinCode) external view returns(address, uint256, uint,uint, uint,string memory,string memory,string memory,string memory,string memory){\n        \n        address owner = carDetalsMap[_state][_district][_city][_pinCode].owner;\n        uint256 carRegistrationID = carDetalsMap[_state][_district][_city][_pinCode].carRegistrationID;\n        uint indx = carDetalsMap[_state][_district][_city][_pinCode].index;\n        uint mv = carDetalsMap[_state][_district][_city][_pinCode].marketValue;\n        uint seats = carDetalsMap[_state][_district][_city][_pinCode].seats;\n        string memory color = carDetalsMap[_state][_district][_city][_pinCode].color;\n        string memory carno = carDetalsMap[_state][_district][_city][_pinCode].carno;\n        string memory carname = carDetalsMap[_state][_district][_city][_pinCode].carname;\n        string memory fueltype = carDetalsMap[_state][_district][_city][_pinCode].fueltype;\n        string memory firstregistrationdate = carDetalsMap[_state][_district][_city][_pinCode].firstregistrationdate;\n\n\n        return(owner, carRegistrationID,indx ,mv, seats,color,carno,carname,fueltype,firstregistrationdate);\n    }\n\n    function getRequestCnt_propId(string memory _state, string memory _district, string memory _city, uint _pinCode) external view returns(uint, uint256){\n        uint _noOfRequests = carDetalsMap[_state][_district][_city][_pinCode].noOfRequests;\n        uint256 _carRegistrationID = carDetalsMap[_state][_district][_city][_pinCode].carRegistrationID;\n        return(_noOfRequests, _carRegistrationID);\n    }\n\n    function getRequesterDetail(string memory _state, string memory _district, string memory _city, uint _pinCode, uint _reqIndex) external view returns(address){\n        address requester = carDetalsMap[_state][_district][_city][_pinCode].requests[_reqIndex].whoRequested;\n        return(requester);\n    }\n\n    function isAvailable(string memory _state, string memory _district, string memory _city, uint _pinCode) external view returns(bool){\n        bool available = carDetalsMap[_state][_district][_city][_pinCode].markAvailable;\n        return(available);\n    }\n\n    function getOwnerOwns(uint indx) external view returns(string memory, string memory, string memory, uint){\n        \n        uint pinCode = ownerMapsProperty[msg.sender][indx].pinCode;\n        string memory state = ownerMapsProperty[msg.sender][indx].state;\n        string memory district = ownerMapsProperty[msg.sender][indx].district;\n        string memory city = ownerMapsProperty[msg.sender][indx].city;\n\n        return(state, district, city, pinCode);\n    }\n\n    function getRequestedCars(uint indx) external view returns(string memory, string memory, string memory, uint){\n        \n        uint pinCode = requestedCars[msg.sender][indx].pinCode;\n        string memory state = requestedCars[msg.sender][indx].state;\n        string memory district = requestedCars[msg.sender][indx].district;\n        string memory city = requestedCars[msg.sender][indx].city;\n\n        return(state, district, city, pinCode);\n    }\n\n    function getUserProfile() external view returns(string memory, string memory, string memory, uint256, string memory){\n        \n        string memory fullName = userProfile[msg.sender].fullName;\n        string memory gender = userProfile[msg.sender].gender;\n        string memory email = userProfile[msg.sender].email;\n        uint256 contact = userProfile[msg.sender].contact;\n        string memory residentialAddr = userProfile[msg.sender].residentialAddr;\n\n        return(fullName, gender, email, contact, residentialAddr);\n    }\n\n    function getIndices() external view returns(uint, uint){\n\n        uint _totalIndices = userProfile[msg.sender].totalIndices;\n        uint _reqIndices = userProfile[msg.sender].requestIndices;\n\n        return(_totalIndices, _reqIndices);\n    }\n\n\n    function didIRequested(string memory _state, string memory _district, string memory _city, uint _pinCode) external view returns(bool){\n        \n        CarDetails storage thisCarDetail = carDetalsMap[_state][_district][_city][_pinCode];\n        uint _noOfRequests = thisCarDetail.noOfRequests;\n\n        if(_noOfRequests == 0) \n            return (false);\n\n        for(uint i=0; i<_noOfRequests; i++){\n            if(thisCarDetail.requests[i].whoRequested == msg.sender){\n                return (true);\n            }\n        } \n\n        return(false);\n        }\n}\n",
  "sourcePath": "E:\\VIT PUNE\\SY SEM 2\\EDI\\Ayush\\land-registry-master (2)\\land-registry-master\\land-registry-master\\contracts\\Registry.sol",
  "compiler": {
    "name": "solc",
    "version": "0.8.19+commit.7dd6d404.Emscripten.clang"
  },
  "schemaVersion": "3.4.13",
  "updatedAt": "2023-04-03T13:40:10.532Z",
  "networkType": "ethereum",
  "devdoc": {
    "kind": "dev",
    "methods": {},
    "version": 1
  },
  "userdoc": {
    "kind": "user",
    "methods": {},
    "version": 1
  }
}